:020000040C02EC
:1000000049443D444F4F525F4543555F584D43343B
:100010003730300000000000000000000000000049
:1000200056657273696F6E3D312E302E30000000C0
:1000300000000000000000000000000000000000C0
:10004000446576656C6F706572733D536D69726E51
:100050006F7620442E412E000000000000000000BA
:100060000000000000000000000000000000000090
:100070000000000000000000000000000000000080
:100080005075626C69736865723D504B4453000053
:100090000000000000000000000000000000000060
:1000A0000000000000000000000000000000000050
:1000B0000000000000000000000000000000000040
:1000C0004C6963656E73653D000000000000000030
:1000D0000000000000000000000000000000000020
:1000E0000000000000000000000000000000000010
:1000F0000000000000000000000000000000000000
:10010000436F6E74616374733D696E666F40706BAC
:100110002D64732E6F726700000000000000000065
:1001200000000000000000000000000000000000CF
:1001300000000000000000000000000000000000BF
:1001400000000000000000000000000000000000AF
:10015000000000000000000000000000000000009F
:10016000000000000000000000000000000000008F
:10017000000000000000000000000000000000007F
:1001800048617264576172653D504B44532E45502F
:10019000435530312E30312E303034000000000015
:1001A000000000000000000000000000000000004F
:1001B000000000000000000000000000000000003F
:1001C000000000000000000000000000000000002F
:1001D000000000000000000000000000000000001F
:1001E000000000000000000000000000000000000F
:1001F00000000000000000000000000000000000FF
:100200004465736372697074696F6E3D504B4453FB
:100210002E5453542E53572E3130303B00000000E3
:1002200000000000000000000000000000000000CE
:1002300000000000000000000000000000000000BE
:1002400000000000000000000000000000000000AE
:10025000000000000000000000000000000000009E
:10026000000000000000000000000000000000008E
:10027000000000000000000000000000000000007E
:10028000000000000000000000000000000000006E
:10029000000000000000000000000000000000005E
:1002A000000000000000000000000000000000004E
:1002B000000000000000000000000000000000003E
:1002C000000000000000000000000000000000002E
:1002D000000000000000000000000000000000001E
:1002E000000000000000000000000000000000000E
:1002F00000000000000000000000000000000000FE
:1003000045787472613D00000000000000000000AC
:1003100000000000000000000000000000000000DD
:1003200000000000000000000000000000000000CD
:1003300000000000000000000000000000000000BD
:1003400000000000000000000000000000000000AD
:10035000000000000000000000000000000000009D
:10036000000000000000000000000000000000008D
:10037000000000000000000000000000000000007D
:10038000000000000000000000000000000000006D
:10039000000000000000000000000000000000005D
:1003A000000000000000000000000000000000004D
:1003B000000000000000000000000000000000003D
:1003C000000000000000000000000000000000002D
:1003D000000000000000000000000000000000001D
:1003E000000000000000000000000000000000000D
:1003F00000000000000000000000000000000000FD
:100400000088FE1F010602089906020899060208E4
:1004100099060208990602089906020800000000E1
:100420000000000000000000000000009906020823
:1004300099060208000000009906020825650208D6
:100440009906020899060208990602089906020808
:1004500099060208990602089906020899060208F8
:1004600099060208000000000000000000000000E3
:1004700099060208000000001920020899060208E7
:10048000ED800208990602089906020899060208FA
:1004900099060208990602089906020899060208B8
:1004A00099060208990602089906020899060208A8
:1004B0009906020899060208990602089906020898
:1004C0009906020899060208990602089906020888
:1004D0009906020899060208990602089906020878
:1004E0009906020899060208990602089906020868
:1004F0009906020899060208990602089906020858
:100500009906020899060208990602089906020847
:100510009906020899060208990602089906020837
:10052000052F0208A5800208E52E02087D8002083A
:10053000898BFE1F9906020899060208990602088F
:100540009906020899060208990602089906020807
:10055000298DFE1FF58DFE1F9906020899060208D7
:10056000000000000000000000000000000000008B
:10057000990602083D810208992D0208792B02088C
:10058000DD2D0208F12C0208452D0208990602080B
:1005900099060208990602089906020899060208B7
:1005A00099060208990602089906020899060208A7
:1005B0009906020899060208990602089906020897
:1005C0009906020899060208990602089906020887
:1005D0009906020899060208990602080000000020
:1005E0009906020899060208990602089906020867
:1005F00099060208000000009906020800000000A9
:10060000DFF874D01D4880471D4C1E4DAC4209DAFE
:1006100021686268A368043BA2BFC858D050FAE7BB
:100620000C34F3E7184B194CA34208DA19685A68DE
:100630000020043AA4BF8850FBE70833F4E71448CD
:1006400080471448804700004896020CC091FE1F66
:1006500004070000888C020C0088FE1FC0090000FF
:10066000C498FE1FFC0900000000002000000000EC
:1006700000000020000000000088FE1F9D06020808
:1006800048060208600602086006020878060208AA
:10069000FD82020865820208FEE7000098B500AFFF
:1006A000064A4FF0005314460FCB84E80F0006F0C3
:1006B00091FD06F0FDFD00BF98BD00BFC4FF032003
:1006C00080B584B000AF2F4BDB6803F48033002B80
:1006D0003ED02D4BDB6803F00103002B02D02B4BE7
:1006E000FB6002E006F0DAFDF860274B1B6803F0C0
:1006F0000403002B20D0244B9B681B0E03F00F0338
:1007000001337B60204B9B681B0A03F07F0301339E
:100710003B601D4B9B681B0C03F07F030133BB60E8
:100720007B68BA6802FB03F3FA68B2FBF3F23B683A
:1007300002FB03F3FB600DE0134B9B6803F07F03A8
:100740000133BB60FA68BB68B2FBF3F3FB6001E006
:100750000E4BFB600B4BDB68DBB20133FA68B2FB7C
:10076000F3F3FB60074B1B6903F001030133FA68E5
:10077000B2FBF3F3FB60064AFB68136000BF10375F
:10078000BD4680BD004600501047005000366E0147
:10079000C0FF032080B483B000AF78607B68D3F8DB
:1007A000043143F400727B68C3F8042100BF0C37A6
:1007B000BD465DF8047B704780B483B000AF7860BD
:1007C00039603A687B68C3F8102100BF0C37BD461A
:1007D0005DF8047B704780B485B000AFF860B96005
:1007E0007A607B681968FB68BA68A03243F8221007
:1007F00000BF1437BD465DF8047B704780B483B0FA
:1008000000AF786039607B683A68C03253F82230B4
:100810009BB218460C37BD465DF8047B704780B527
:1008200084B000AF7860396039687868FFF7E6FF18
:100830000346FB81FB8918461037BD4680BD00008A
:1008400080B500AF0D4A05210D4805F093FB0D4A18
:1008500005210B48FFF7BFFF0B4B19680848FFF74E
:10086000ABFF41F605720021054805F08BFA042222
:100870000521034805F0EDFB00BF80BD4092FE1F3F
:1008800000500040C498FE1F3C92FE1F80B586B009
:1008900000AF00237B610F23FB6000237B610023FB
:1008A0003B6119E01348FFF775FF00237B6002E00E
:1008B0007B6801337B607B68FA689A42F8D805212F
:1008C0000C48FFF7ACFF0346BB607A69BB68134472
:1008D0007B613B6901333B613B690F2BE2D97B694B
:1008E0001B09BB60BB68044A136000BF1837BD46D4
:1008F00080BD00BF00500040E892FE1F80B483B06E
:1009000000AF7860064BDA6C7B68DB430449134028
:10091000CB6400BF0C37BD465DF8047B704700BF59
:100920000040005080B483B000AF78600B46FB708D
:10093000FB7801229A407B685A6000BF0C37BD46A5
:100940005DF8047B704780B483B000AF78600B46DD
:10095000FB70FB784FF480329A407B685A6000BF8E
:100960000C37BD465DF8047B704780B500AF4FF48F
:100970008070FFF7C3FF00BF80BD80B483B000AFBD
:1009800078600B46FB707B68DA6CFB781A437B68F7
:10099000DA6400BF0C37BD465DF8047B704780B455
:1009A00083B000AF78600B46FB707B68DA6CFB7835
:1009B000DB431A407B68DA6400BF0C37BD465DF844
:1009C000047B704780B500AF00F0ACFA00F0E0FAAD
:1009D00000F028FB034B5B8A01339AB2024B1A8466
:1009E00000BF80BD2892FE1F9492FE1F80B500AF0D
:1009F00000F01CF8FFF7B9FF00BF80BD80B500AF65
:100A0000084B5B7B012B03D10B210748FFF78AFFC3
:100A1000044B5B7B022B03D10B210348FFF793FFB1
:100A200000BF80BD9492FE1F0082024880B500AFD7
:100A3000084B5B7B012B03D10B210748FFF783FF9A
:100A4000044B5B7B022B03D10B210348FFF76AFFAA
:100A500000BF80BD9492FE1F0082024880B483B024
:100A600000AF0346FB7197F90730002B0CDBFB79D5
:100A700003F01F02074997F907305B09012000FACC
:100A800002F2603341F8232000BF0C37BD465DF809
:100A9000047B704700E100E080B483B000AF786071
:100AA0007B680122DA6000BF0C37BD465DF8047B2D
:100AB000704780B483B000AF78607B6801221A6110
:100AC00000BF0C37BD465DF8047B704780B483B02F
:100AD00000AF78607B6802221A6100BF0C37BD4608
:100AE0005DF8047B704780B483B000AF78607B68AA
:100AF00001229A6000BF0C37BD465DF8047B704749
:100B000080B483B000AF78607B680322DA6000BFF6
:100B10000C37BD465DF8047B704780B483B000AFEE
:100B200078600B46FB707B685A6AFB7822FA03F305
:100B300003F0010318460C37BD465DF8047B70478F
:100B400080B400AF124B002283F82920104B002202
:100B5000DA610F4B00221A600D4B00225A600C4BD9
:100B600000229A600A4B0022DA60094B00221A61C7
:100B7000074B00225A61064B5B6A054A9361044B9E
:100B800000221A6200BFBD465DF8047B704700BFBB
:100B9000BC92FE1F80B500AF00F010FB00F0C4F85F
:100BA00000F028FA00BF80BD80B500AFFFF7C8FF96
:100BB0000648FFF798FF0648FFF788FF0548FFF74C
:100BC00085FF0448FFF768FF00BF80BD008002403A
:100BD00000C1004000C2004080B500AF0648FFF7EA
:100BE0008FFF4420FFF73AFF0448FFF762FF0448F5
:100BF000FFF75FFF00BF80BD0080024000C10040E2
:100C000000C2004080B584B000AF3B4600221A60AD
:100C10005A609A6003211148FFF77FFF03463B604B
:100C200002210E48FFF779FF03467B603A687B6834
:100C30005B001343FB6001210848FFF76EFF03468A
:100C4000BB60BB689B00FA681343FB60FB6803F062
:100C5000070318461037BD4680BD00BF008102481B
:100C600080B483B000AF78600B46FB70FB78012244
:100C70009A407B68DA6000BF0C37BD465DF8047BA4
:100C8000704780B483B000AF78600B467B807A8871
:100C90007B685A6300BF0C37BD465DF8047B704724
:100CA00080B483B000AF78600B467B807A887B6825
:100CB000DA6300BF0C37BD465DF8047B704780B433
:100CC00083B000AF786039607B683A681A6100BF12
:100CD0000C37BD465DF8047B704780B483B000AF2D
:100CE00078607B685B6943F480327B685A6100BF3F
:100CF0000C37BD465DF8047B704780B483B000AF0D
:100D000078600B46FB707B68D3F8A420FB78012148
:100D100001FA03F31A437B68C3F8A42000BF0C3721
:100D2000BD465DF8047B704780B500AF00210448E4
:100D300003F083FF00F006F800F03EF800BF80BD2E
:100D400000C0004080B500AF1649174803F0B0FF5F
:100D5000164B1B8819461448FFF7A2FF134B5B88FC
:100D600019461148FFF78DFF01211148FFF7A7FF32
:100D7000104A01210C4804F0CEF9012201210A4851
:100D800003F0F4FF00210A48FFF76AFF0022002168
:100D9000054804F05BFA00210348FFF7AEFF00BFEF
:100DA00080BD00BF0092FE1F00C100400C92FE1FDC
:100DB00000C000400892FE1F80B500AF0C490D48EE
:100DC00003F0ADFF05210B4804F021FA0948FFF7B5
:100DD00084FF094A0121074804F09DF901210548D3
:100DE00004F0AFF801210548FFF73AFF00BF80BDCE
:100DF0001092FE1F00C200401892FE1F00C000406B
:100E000080B483B000AF78600B46FB70FB780122A2
:100E10009A407B68DA6000BF0C37BD465DF8047B02
:100E2000704780B483B000AF786039607B683A68FF
:100E30001A6100BF0C37BD465DF8047B704780B473
:100E400083B000AF78600B46FB707B68D3F8A420BA
:100E5000FB78012101FA03F31A437B68C3F8A4204D
:100E600000BF0C37BD465DF8047B704780B582B08B
:100E700000AF78600B46FB701346BB70BA78FB7806
:100E80001946786804F0F0FBFB7819467868FFF79C
:100E9000D6FF00BF0837BD4680BD000080B584B0D6
:100EA00000AF7860194A7B6852F82330FB60174A1C
:100EB0007B6813440C331B7819461548FFF7A0FFD5
:100EC0001449F86804F0AAFA104B5B8A1946F868CE
:100ED00004F0A2FB104A0121F86804F033FB012260
:100EE0000121F86804F0D4FA0C4A0221F86804F0F1
:100EF00029FB02220221F86804F0F8FA0849F86890
:100F000004F01CFC00BF1037BD4680BD2892FE1FB8
:100F100000000240A8830208A0830208A4830208FC
:100F20001C92FE1F80B582B000AF0021164804F06D
:100F300056FA00237B6005E07868FFF7AFFF7B6817
:100F400001337B607B68022BF6D9104B1B680022B3
:100F500001211846FFF78AFF0C4B5B68022205212E
:100F60001846FFF783FF094B5B68084A128A012184
:100F7000184604F060FB40F211110348FFF751FFDF
:100F800000BF0837BD4680BD000002402892FE1F0A
:100F900080B500AF0F4A09210F4802F0F7FC0F4A55
:100FA0000E210F4802F0F2FC0E4A0A210A4802F014
:100FB000EDFC0D4A0F210A4802F0E8FC0B4A0B2118
:100FC000054802F0E3FC0A4A0821034802F0DEFC6F
:100FD00000BF80BDB883020800850248C4830208B0
:100FE00000820248D0830208DC830208E8830208FA
:100FF000F483020880B500AF084A0321084802F0D4
:10100000C5FC064A0221064802F0C0FC034A012141
:10101000034802F0BBFC00BF80BD00BF0084020893
:101020000081024880B500AF034A0B21034802F05B
:10103000ADFC00BF80BD00BF0C84020800820248E6
:1010400080B400AF044BDB681B0A03F007031846AB
:10105000BD465DF8047B704700ED00E080B483B0CE
:1010600000AF0346FB7197F90730002B0BDBFB79D0
:1010700003F01F02074997F907305B09012000FAC6
:1010800002F241F8232000BF0C37BD465DF8047B17
:10109000704700BF00E100E080B483B000AF0346BA
:1010A0003960FB7197F90730002B0ADB3B68DAB235
:1010B0000C4997F907309200D2B20B4483F8002311
:1010C0000AE03B68DAB20849FB7903F00F03043BFE
:1010D0009200D2B20B441A7600BF0C37BD465DF8C1
:1010E000047B704700E100E000ED00E080B489B0CF
:1010F00000AFF860B9607A60FB6803F00703FB613A
:10110000FB69C3F10703062B28BF0623BB61FB69FC
:101110000633062B02D9FB69013B00E000237B610B
:101120004FF0FF32BB6902FA03F3DA43BB681A409F
:101130007B699A404FF0FF317B6901FA03F3D94391
:101140007B680B40134318462437BD465DF8047B8B
:10115000704780B584B000AF0346B9607A60FB7316
:10116000FFF76EFF03467A68B9681846FFF7BEFFBF
:10117000024697F90F3011461846FFF78DFF97F991
:101180000F301846FFF76AFF00BF1037BD4680BD1D
:1011900080B483B000AF78600B46FB707B685A6FF9
:1011A000FB78012101FA03F31A437B685A6700BFF9
:1011B0000C37BD465DF8047B7047000080B500AF7A
:1011C0001449154804F080FB1449134804F0AEFBA1
:1011D0001349114804F08BFB002200210E4804F053
:1011E000C4FB002201210C4804F0BFFB01220421B2
:1011F000094804F0BAFB00210748FFF7C9FF0121A5
:101200000548FFF7C5FF04210348FFF7C1FF00BFF2
:1012100080BD00BF1C8402080080024020840208B8
:101220001884020880B483B000AF78600B46FB706E
:101230007B68D3F8043123F003027B68C3F80421F0
:101240007B68D3F80421FB781A437B68C3F8042138
:1012500000BF0C37BD465DF8047B704780B483B097
:1012600000AF78607B68D3F8043143F480627B6818
:10127000C3F8042100BF7B68D3F8083103F02003D2
:10128000002BF8D000BF00BF0C37BD465DF8047BD3
:101290007047000080B500AF0E494FF0402004F0C9
:1012A0001AFC03210C4804F051FD0C4900230022D4
:1012B0000968094804F0EDFC0949074804F00CFEF0
:1012C00001210548FFF7AEFF0348FFF7C7FF00BF46
:1012D00080BD00BF24840208005000403C84020806
:1012E0004084020880B483B000AF786039607B68C6
:1012F0003A681A6100BF0C37BD465DF8047B704741
:1013000080B483B000AF78607B68D3F80031DBB283
:101310005B11DBB203F00703DBB218460C37BD46A6
:101320005DF8047B704780B483B000AF78603960AB
:101330007B683A68C03253F822309BB218460C37AB
:10134000BD465DF8047B704780B584B000AF0346AE
:10135000FB80FB881A4AD28C02FB03F39B13FB81B0
:10136000174B1B685A8AFB89D31A9AB2144B9A847A
:10137000134AFB895384124B9B7B114A0C335B004D
:101380001344DA880F4BDA630D4BDB7B0C4A0C33CA
:101390005B001344DA880C4BDA63094B1B7C084A68
:1013A0000C335B001344DA88084BDA6340F2111106
:1013B0000748FFF797FF00BF1037BD4680BD00BF4D
:1013C0009492FE1F0003024000020240000102400E
:1013D0000000024080B400AF124B002283F82920A5
:1013E000104B0022DA610F4B00221A600D4B0022D5
:1013F0005A600C4B00229A600A4B0022DA60094BBB
:1014000000221A61074B00225A61064B5B6A054AAB
:101410009361044B00221A6200BFBD465DF8047B55
:10142000704700BFBC92FE1F80B582B000AF054878
:10143000FFF766FF0346FB71FB7918460837BD4688
:1014400080BD00BF0080024080B584B000AF7860EE
:10145000396039687868FFF766FF0346FB81FB89CE
:1014600018461037BD4680BD80B487B000AFF86025
:10147000B9607A60FA68BB689A4202DDBB687B613A
:1014800008E0FA687B689A4202DA7B687B6101E0D7
:10149000FB687B617B6918461C37BD465DF8047BA1
:1014A000704790B583B000AF786039607B681A6987
:1014B0007B681B687968096909143868411A01FB5F
:1014C00003F3D4187B6899687B68DB681A4620466A
:1014D000FFF7CAFF02467B681A617B681B691A1412
:1014E0007B685A6100BF0C37BD4690BD80B584B0A3
:1014F00000AF786005212148FFF7A6FF0346FB6097
:101500001F4B1B68FA68D31A1D4A926802FB03F34B
:101510009B13FB60F9681B48FFF7C3FF194B5B691E
:10152000FB60174B93F82030012B1CD1144BDB6967
:101530000133134AD361124BDA69114B9B699A420A
:101540000CD97B68FA681A600D4AFB6813610C4B72
:101550000022DA610A4B002283F82020084B1A6926
:101560007B681A6005E07B68FA681A60044AFB68C9
:10157000136100BF1037BD4680BD00BF0050004062
:10158000E892FE1F6892FE1F80B584B000AF7860BD
:1015900005210F48FFF758FF0346FB600D4B1B6802
:1015A000FA68D31A0B4A926802FB03F39B13FB60A1
:1015B000084B5B691B681A46FB6802FB03F39B132D
:1015C000FB607B68FA681A6000BF1037BD4680BDBB
:1015D00000500040E892FE1F80B487B000AFF86072
:1015E000B9607A60FA68BB689A4202DDBB687B61C9
:1015F00008E0FA687B689A4202DA7B687B6101E066
:10160000FB687B617B6918461C37BD465DF8047B2F
:10161000704780B485B000AF786039607A683B6805
:101620009A4202D10123FB7301E00023FB73FB7B91
:1016300018461437BD465DF8047B704790B583B0FB
:1016400000AF786039603C687B685B8A04FB03F319
:101650007A68527D03FB02F27B685B681A447B6800
:101660005A607B681B8A03FB04F27B685B68134447
:101670007A68127D43FA02F47B68D9687B689B68BC
:101680001A462046FFF7A8FF02467B681A607B686F
:101690001B6819462046FFF7BCFF03461A467B68C5
:1016A0005A7500BF0C37BD4690BD000080B584B0B0
:1016B00000AF78600C4BDB6E0C4AD3600C4B1B68A0
:1016C0000A4A9360094B9A68084BDB68D31AFB609F
:1016D000F9680848FFF7B2FF064B1A687B681A6082
:1016E00000BF1037BD4680BD5093FE1F0C93FE1FF8
:1016F0008092FE1F5092FE1F80B584B000AF7860CC
:1017000039607B68002B13DA7B685B427B60254B7A
:101710009B6F012B1FD1234B4FF0FF329A67FFF7CE
:1017200083FE0346FB73FB7B184606F035FE12E092
:101730007B68002B0FDD1B4B9B6FB3F1FF3F0AD182
:10174000184B01229A67FFF76FFE0346FB73FB7B82
:10175000184606F021FE7A683B681A60124B5B68F7
:10176000BB60BB68002B19D10E4BDA6E0D4BD3F862
:10177000A4309A4212DA0B4BDA6E0A4BD3F8A4303B
:101780005B429A420ADD074B0022DA66054B0022D3
:101790001A67064B00225A60FFF71CFE00BF103785
:1017A000BD4680BD5093FE1F0C93FE1F5092FE1F3E
:1017B00080B483B000AF78607B684FF48072DA60E9
:1017C00000BF0C37BD465DF8047B704780B483B022
:1017D00000AF78607B684FF480729A6000BF0C376E
:1017E000BD465DF8047B704780B483B000AF78607D
:1017F0007B680122DA6000BF0C37BD465DF8047BD0
:10180000704780B483B000AF78607B6801221A61B2
:1018100000BF0C37BD465DF8047B704780B483B0D1
:1018200000AF78607B681B6F9BB218460C37BD46D3
:101830005DF8047B704780B483B000AF78600B46DE
:101840007B807A887B681A6700BF0C37BD465DF8DD
:10185000047B704780B483B000AF78607B68D3F8B6
:101860000031DBB25B11DBB203F00703DBB21846D9
:101870000C37BD465DF8047B704780B483B000AF81
:1018800078607B681B6BDB08DBB203F00703DBB21D
:1018900018460C37BD465DF8047B704780B483B0B2
:1018A00000AF78600B46FB70FB7803F03F027B686B
:1018B0005A6300BF0C37BD465DF8047B704780B4A7
:1018C00083B000AF78607B6802229A6400BF0C3757
:1018D000BD465DF8047B704780B483B000AF78608C
:1018E0000B46FB70FB7801229A407B68DA6700BFE9
:1018F0000C37BD465DF8047B704780B483B000AF01
:1019000078600B46FB707B681A6FFB7822FA03F352
:10191000DBB203F00103DBB218460C37BD465DF8BD
:10192000047B704780B582B000AF0346FB71FB7942
:1019300019460348FFF7B2FF00BF0837BD4680BD18
:101940000080024080B500AF0248FFF7B8FF00BF3B
:1019500080BD00BF0080024080B582B000AF054866
:10196000FFF78BFF0346FB71FB7918460837BD462E
:1019700080BD00BF0080024080B582B000AF03216F
:10198000044803F032FC78607B6818460837BD468F
:1019900080BD00BF00C2004080B582B000AF0548E6
:1019A000FFF758FF0346FB71FB7918460837BD4621
:1019B00080BD00BF0080024080B500AF0A48FFF73D
:1019C00020FF0A48FFF702FF00210748FFF733FF17
:1019D0000521054803F01BFC0448FFF7E9FE024817
:1019E000FFF702FF00BF80BD00C2004000C0004002
:1019F00080B582B000AF0548FFF710FF0346FB80BB
:101A0000FB8818460837BD4680BD00BF00C20040B5
:101A100080B582B000AF0346FB71FB7919460448DC
:101A2000FFF76BFF034618460837BD4680BD00BF71
:101A30000080024080B582B000AF0346FB71FB79A5
:101A400019460348FFF748FF00BF0837BD4680BD71
:101A50000080024080B588B000AF594B9B6FDBB26D
:101A600003F00803FB77564B9B6F5B42BB61BB697E
:101A7000DBB203F00803FB7500237B60514B0122AE
:101A800083F82020FFF788FF0346BB754E4B5B7C35
:101A90001A46FB7D13444C4AD35CDB087B754A4BEA
:101AA0005B7C1A46FB7F1344474AD35CDB083B75DB
:101AB0007A7DBB7D9A4203D03A7DBB7D9A426BD141
:101AC000424B1B78002B2AD13D4B93F86430DBB29C
:101AD000022B24D13A4B9B6F5B423C4AD3603B4B79
:101AE000DB68DBB203F00803FB77384B01221A7482
:101AF000BA7DFB7F1344344AD35C1846FFF712FFCC
:101B0000FFF720FFFFF728FF0346FB74FA7CFB7FFB
:101B100013442D4AD35C1846FFF704FF35E0284BE9
:101B20009B6F5B42264AD367BB7D184606F034FCA8
:101B3000FFF75EFF03463B82254B9B6A1B0A03F0BF
:101B40000F03FB60FFF738FFFB68053B214A52F8A3
:101B50002320398AFB68053B01FA03F31344BB6079
:101B60001D4ABB6893613B1D1946B86806F010FC1E
:101B7000134BDB6F7A6802FB03F3114AD2F8BC20E7
:101B800002FB03F39B120E4AD366FFF705FF0346E1
:101B90001A460D4B5A740BE0094B9B6E43F0080339
:101BA000074A9366064B082283F8642000F0D6FEAD
:101BB0000120FFF73FFF00BF2037BD4680BD00BFBB
:101BC0005093FE1FE892FE1F1C93FE1F3093FE1FD2
:101BD00000C20040C091FE1FBC92FE1F80B586B0BF
:101BE00000AF344B9B6FDBB203F00803FB75324B45
:101BF0005B690133304A53612F4B00229A602E4BB0
:101C00005B69012B0AD12C4B1B7C002B06D1294B85
:101C10009B6F294AD360284B01221A74264BDB683C
:101C2000DBB203F00803FB75FFF7A6FE3861224B19
:101C30005B69012B25D9204B1B78002B21D1FFF7A5
:101C40009BFE38613B699BB2FB603B691B0C03F058
:101C50000F03BB60184B5A68BB68053B174951F826
:101C60002310BB68053BF86800FA03F30B441344E8
:101C7000114A5360104B5B69032B02D10E4B0122BA
:101C80001A70FFF789FE03461A460D4B5A74FFF788
:101C900063FE0346FB71FA79FB7D1344084AD35C6B
:101CA0001846FFF73FFE0020FFF7C4FE00BF1837BD
:101CB000BD4680BD5093FE1F3093FE1FC091FE1F96
:101CC0001C93FE1F80B483B000AF78607B68D3F8AC
:101CD0000031DBB25B11DBB203F00703DBB2184665
:101CE0000C37BD465DF8047B704780B483B000AF0D
:101CF00078607B681B6BDB08DBB203F00703DBB2A9
:101D000018460C37BD465DF8047B704780B483B03D
:101D100000AF78600B46FB70FB7803F03F027B68F6
:101D20005A6300BF0C37BD465DF8047B704780B432
:101D300083B000AF78600B467B807A887B685A64FA
:101D400000BF0C37BD465DF8047B704780B483B09C
:101D500000AF78607B681B6C9BB218460C37BD46A1
:101D60005DF8047B704780B483B000AF78607B6817
:101D70005B6C9BB218460C37BD465DF8047B704720
:101D800080B586B000AF78600123FB75032116484B
:101D900003F02BFA38613B6903F48013002B1BD04E
:101DA0003B691B0C03F00F03FB603B699BB23B617B
:101DB000FB68053B0D4A52F82320FB68053B396957
:101DC00001FA03F313440A4A9361094B9A697B6849
:101DD0001A600023FB7502E07B6800221A60FB7D1D
:101DE00018461837BD4680BD00C20040C091FE1F96
:101DF000BC92FE1F80B582B000AF0346FB80FB881B
:101E000019460348FFF793FF00BF0837BD4680BD62
:101E10000080024080B582B000AF0548FFF796FF12
:101E20000346FB80FB8818460837BD4680BD00BFCF
:101E30000080024080B582B000AF0548FFF793FFF5
:101E40000346FB80FB8818460837BD4680BD00BFAF
:101E50000080024080B582B000AF0346FB71FB7981
:101E600019460348FFF752FF00BF0837BD4680BD43
:101E70000080024080B582B000AF0548FFF735FF13
:101E80000346FB71FB7918460837BD4680BD00BF8D
:101E90000080024080B582B000AF0548FFF712FF16
:101EA0000346FB71FB7918460837BD4680BD00BF6D
:101EB0000080024080B483B000AF786039607B68F6
:101EC0003A68C03253F822309BB218460C37BD46F0
:101ED0005DF8047B704780B584B000AF78603960EE
:101EE00039687868FFF7E6FF0346FB81FB891846EF
:101EF0001037BD4680BD80B487B000AFF860B960D0
:101F00007A60FA68BB689A4202DDBB687B6108E0D0
:101F1000FA687B689A4202DA7B687B6101E0FB68C1
:101F20007B617B6918461C37BD465DF8047B7047B2
:101F300090B583B000AF786039607B681A697B68C0
:101F40001B687968096909143868411A01FB03F3B1
:101F5000D4187B6899687B68DB681A462046FFF7CF
:101F6000CAFF02467B681A617B681B691A147B688A
:101F70005A6100BF0C37BD4690BD000080B584B0EB
:101F800000AF786005212148FFF7A5FF0346FB60FD
:101F90001F4B1B68FA68D31A1D4A926802FB03F3B1
:101FA0009B13FB60F9681B48FFF7C2FF194B5B6985
:101FB000FB60174B93F82030012B1CD1144BDB69CD
:101FC0000133134AD361124BDA69114B9B699A4270
:101FD0000CD97B68FA681A600D4AFB6813610C4BD8
:101FE0000022DA610A4B002283F82020084B1A698C
:101FF0007B681A6005E07B68FA681A60044AFB682F
:10200000136100BF1037BD4680BD00BF00500040C7
:10201000E892FE1F6892FE1F80B582B000AF214B90
:10202000D3F880315B0903F00103012B35D13B1D4F
:102030001846FFF7A3FF1C4BDA687B689A4204DB63
:102040007B6843F6D87293420CDD184B9B6E43F0CD
:102050000403164A9366154B082283F8642000F0A7
:102060007DFC1AE0114BD3F8AC3002330F4AC2F8B2
:10207000AC300E4BD3F8AC200C4BD3F8A8309A42BE
:102080000BD90A4B9B6E43F00203084A9366074B39
:10209000082283F8642000F061FC00BF0837BD46C9
:1020A00080BD00BF00500040E892FE1F5093FE1F0D
:1020B00080B483B000AF0346FB7197F90730002B63
:1020C0000CDBFB7903F01F02074997F907305B0926
:1020D000012000FA02F2603341F8232000BF0C37E0
:1020E000BD465DF8047B704700E100E080B483B03A
:1020F00000AF7860054BDA6C04497B681343CB640E
:1021000000BF0C37BD465DF8047B704700400050AF
:1021100080B483B000AF78607B681B6BDB08DBB2F8
:1021200003F00703DBB218460C37BD465DF8047BAD
:10213000704780B483B000AF78600B46FB70FB78CB
:1021400003F03F027B685A6300BF0C37BD465DF861
:10215000047B704780B483B000AF78607B68022254
:102160009A6400BF0C37BD465DF8047B704780B4AD
:1021700083B000AF78600B46FB707B685A6FFB78CA
:10218000012101FA03F3DB431A407B685A6700BF61
:102190000C37BD465DF8047B704780B500AF4FF447
:1021A0008070FFF7A3FF00BF80BD000080B400AFC8
:1021B000124B002283F82920104B0022DA610F4BCA
:1021C00000221A600D4B00225A600C4B00229A60CC
:1021D0000A4B0022DA60094B00221A61074B0022E9
:1021E0005A61064B5B6A054A9361044B00221A62EE
:1021F00000BFBD465DF8047B704700BFBC92FE1F68
:1022000080B582B000AF0346FB71FB7919460348E5
:10221000FFF78FFF00BF0837BD4680BD008002403A
:1022200080B500AF0248FFF795FF00BF80BD00BF3B
:102230000080024080B582B000AF0548FFF768FF1C
:102240000346FB71FB7918460837BD4680BD00BFC9
:102250000080024080B582B000AF0346FB71FB797D
:1022600019460348FFF783FF00BF0837BD4680BD0E
:102270000080024080B500AF00F07AFAFEF7BEFBA6
:1022800000223C210E20FEF764FF00F002F800BFA0
:1022900080BD80B500AF00F081F800BF80BD0000B8
:1022A00080B500AF0020FFF7D5FFFEF7ABFC03467B
:1022B000DAB21A4B5A74194B5B7C184606F06CF86C
:1022C0004420FFF7F5FE164B93F86430DBB2022B87
:1022D00006D0FEF769FC00223D214420FEF739FFBD
:1022E00000223D214520FEF734FF00223E213C2004
:1022F000FEF72FFF0A4B93F86430DBB2012B05D0B9
:10230000074B93F86430DBB2022B01D1FFF745FF96
:10231000034B072283F8642000BF80BD1C93FE1F7F
:102320005093FE1F80B582B000AF184B1B68184A4F
:102330001360184B5B68154A5360144B5A68134B73
:102340001B68D31A124A926F02FB03F37B607B680F
:10235000002B04DA0D4B1B690C4A936003E00B4B16
:10236000DB680A4A936006F00BF80B4B9B6A1B0A6A
:102370003B603B680B2B04D9FFF718FF044B00228E
:10238000DA6600BF0837BD4680BD00BF8092FE1FE1
:102390005093FE1F0C93FE1F00C2004080B582B018
:1023A00000AF1B4B9B6FDBB203F00803FB71184BB4
:1023B0009B6F184AD360FEF725FC0346DAB2164B32
:1023C0005A74154B5B7C1A46FB791344124AD35C52
:1023D0001846FFF715FFFFF723FFFFF72BFF034614
:1023E000BB71BA79FB7913440B4AD35C1846FFF7EB
:1023F00007FFFEF7D9FB00223D214420FEF7A9FE8E
:10240000034B022283F8642000BF0837BD4680BD1D
:102410005093FE1F3093FE1F1C93FE1F80B500AF2C
:1024200000F058F90346012B01D100F003F800BF7A
:1024300080BD000080B500AF0020FFF70BFF204BF0
:10244000DA68204B9B6F9A4218D11E4BDA6E1C4BF8
:102450009B699A4206DC1B4BDA6E194B9B695B4207
:102460009A4206DA174BDB6E174A1360FFF718FF24
:1024700023E0FEF70BFAFFF713FF1EE0114BDA6EB5
:102480000F4B9B699A4206DC0E4BDA6E0C4B9B6934
:102490005B429A420CDA0B4B082283F86420094B0A
:1024A0009B6E43F08003074A936600F057FA04E0FE
:1024B000FEF7ECF9FFF7F4FEFFE700BF80BD00BFB9
:1024C0003093FE1F5093FE1F8092FE1F80B400AF1A
:1024D000064B9B6E002B03D1044B002283F8642033
:1024E00000BFBD465DF8047B704700BF5093FE1FE0
:1024F00080B483B000AF78607B681B6BDB08DBB215
:1025000003F00703DBB218460C37BD465DF8047BC9
:10251000704780B483B000AF78600B46FB70FB78E7
:1025200003F03F027B685A6300BF0C37BD465DF87D
:10253000047B704780B483B000AF78607B68022270
:102540009A6400BF0C37BD465DF8047B704780B4C9
:1025500083B000AF78600B467B807A887B685A64D2
:1025600000BF0C37BD465DF8047B704780B483B074
:1025700000AF78607B681B6C9BB218460C37BD4679
:102580005DF8047B704780B483B000AF78607B68EF
:102590005B6C9BB218460C37BD465DF8047B7047F8
:1025A00080B483B000AF78607B689B6C43F004021A
:1025B0007B689A6400BF0C37BD465DF8047B7047AA
:1025C00080B483B000AF78600B46FB707B685A6FB5
:1025D000FB78012101FA03F3DB431A407B685A6759
:1025E00000BF0C37BD465DF8047B704780B582B0F4
:1025F00000AF0346FB80FB8819460348FFF7A7FF9F
:1026000000BF0837BD4680BD0080024080B500AFE6
:102610000248FFF7C5FF00BF80BD00BF0080024039
:1026200080B582B000AF0548FFF7A0FF0346FB80EE
:10263000FB8818460837BD4680BD00BF00800240B9
:1026400080B582B000AF0548FFF79DFF0346FB80D1
:10265000FB8818460837BD4680BD00BF0080024099
:1026600080B582B000AF0346FB71FB791946034881
:10267000FFF74FFF00BF0837BD4680BD0080024016
:1026800080B500AF0248FFF755FF00BF80BD00BF17
:102690000080024080B582B000AF0548FFF728FFF8
:1026A0000346FB71FB7918460837BD4680BD00BF65
:1026B0000080024080B582B000AF0346FB71FB7919
:1026C00019460348FFF77CFF00BF0837BD4680BDB1
:1026D0000080024080B582B000AF0023FB71214B27
:1026E0001B78012B25D10020FFF7E4FF1D4B5B6811
:1026F0005A0813465B0013445B001A46194B5A6094
:10270000194B5A6A174B5B68B2FBF3F33B60174BEC
:10271000D3F8BC303A6802FB03F39B0A3B60114BD1
:10272000DB683A6802FB03F3104AD3660123FB71AE
:1027300012E00C4B9B6801330A4A9360094B9A687C
:10274000084BDB699A4207D3084B0022DA66002067
:10275000FFF7B0FF0123FB71FB7918460837BD4630
:1027600080BD00BF3093FE1FBC92FE1F5093FE1F22
:1027700080B483B000AF2B4B0022C3F89420294BC8
:102780000022DA66274B00221A67264B00225A677E
:10279000244B0022C3F88020224B0022C3F8AC2037
:1027A000214B0022DA61214B00221A61204B1B6869
:1027B0007B601F4B5B683B607B68002B0BD13B68E9
:1027C000002B03DB174B01229A670FE0154B4FF0EC
:1027D000FF329A670AE07B68002B03DD114B012270
:1027E0009A6703E00F4B4FF0FF329A670D4B9B6FD8
:1027F0000C4AD3670E4B1B680E4A13600E4B002227
:102800005A600D4B00221A600B4B01225A75054B82
:10281000002283F8C32000BF0C37BD465DF8047B5F
:10282000704700BF5093FE1FE892FE1F6892FE1F84
:102830000C93FE1F8092FE1F5092FE1F80B483B047
:1028400000AF314B1B68314A13600023FB7150E02D
:10285000FB792F4A10335B0013449B8803F47063A9
:10286000B3F5807F0FD1FB79294A10335B00134405
:102870009A88FB7942F4007291B2254A5B001344B6
:102880000A469A8032E0FB79214A10335B001344F8
:102890009B8803F0F003102B0FD1FB791C4A1033F7
:1028A0005B0013449A88FB7942F0200291B2184AE7
:1028B0005B0013440A469A8018E0FB79144A1033EF
:1028C0005B0013449B8803F00F03012B0ED1FB79AF
:1028D0000F4A10335B0013449A88FB7942F00202DE
:1028E00091B20B4A5B0013440A469A80FB7901338C
:1028F000FB71FB790F2BABD900BF00BF0C37BD4676
:102900005DF8047B704700BF0C93FE1F8092FE1F92
:102910005093FE1F80B500AFFEF7BCFCFDF790FFA3
:1029200000BF80BD80B582B000AF00237B6002E0B5
:102930007B6801337B607B68074A9342F8D9FEF7D6
:1029400041F8FEF727F9FFF7E5FFFFF777FF00BF34
:102950000837BD4680BD00BFFEFF070080B500AF51
:10296000FEF744F8FEF738F9FEF760F80C4B00224A
:10297000DA660B4B00221A67094B00225A67084B94
:102980009B6E002B06D0064B082283F8642005F0CE
:10299000FBFC03E0024B002283F8642000BF80BDF3
:1029A0005093FE1F80B500AF0023114A01214FF460
:1029B0007A7003F015FE03461A460E4B1A60002388
:1029C0000D4A0121642003F00BFE03461A460B4B0F
:1029D0001A600A4B1B68184603F0A0FE054B1B68E3
:1029E000184603F09BFEFFF79DFF00BF80BD00BFB0
:1029F000652B0208E498FE1F012A0208E898FE1FD2
:102A000080B584B000AF78600023FB60FEF7FAF871
:102A1000F860524B1B68FA689A4200F09080FB689D
:102A2000012B08D14D4B1B68052B04D14C4B9B68E7
:102A300001334B4A9360FB68012B08D1474B1B685D
:102A4000032B04D1464B9B68013B454A9360FB68CE
:102A5000032B08D1414B1B68012B04D1404B9B68D1
:102A600001333F4A9360FB68032B08D13B4B1B6843
:102A7000022B04D13A4B9B68013B394A9360FB68B7
:102A8000022B08D1354B1B68032B04D1344B9B68B8
:102A90000133334A9360FB68022B08D12F4B1B682C
:102AA000062B04D12E4B9B68013B2D4A9360FB689B
:102AB000062B08D1294B1B68022B04D1284B9B689D
:102AC0000133274A9360FB68062B08D1234B1B6810
:102AD000042B04D1224B9B68013B214A9360FB6885
:102AE000042B08D11D4B1B68062B04D11C4B9B6883
:102AF00001331B4A9360FB68042B08D1174B1B68FA
:102B0000052B04D1164B9B68013B154A9360FB686B
:102B1000052B08D1114B1B68042B04D1104B9B686B
:102B200001330F4A9360FB68052B08D10B4B1B68E0
:102B3000012B04D10A4B9B68013B094A9360074A69
:102B4000FB681360064B9B68002BB8BF5B429AB2D0
:102B5000034B1A8000BF1037BD4680BDEC98FE1FA6
:102B6000CC98FE1F80B582B000AF786005F00CFCF9
:102B700000BF0837BD4680BD80B485B000AF584B5C
:102B80001B68FB6000237B600023BB60FB685B6805
:102B9000C3F31C031946534B9B68013B1A02524B6B
:102BA0001344994202D1FB681B697B607B6803F088
:102BB0000203002B08D07B6803F00103002B03D134
:102BC0004A4B01221A7002E0484B00221A707B68BF
:102BD00003F00103002B08D07B6803F00203002BF5
:102BE00003D1424B01225A7002E0404B00225A703E
:102BF0007B6803F01003002B04D07B6803F02003F4
:102C0000002B09D07B6803F00403002B08D07B68FD
:102C100003F00803002B03D1344B01229A7002E029
:102C2000324B00229A707B6803F04003002B08D0DF
:102C30007B6803F08003002B03D12C4B0122DA7058
:102C400002E02A4B0022DA707B6803F08003002B3D
:102C500008D07B6803F04003002B03D1234B0122F3
:102C60001A7102E0214B00221A717B6803F4807311
:102C7000002B08D07B6803F40073002B03D11B4B9F
:102C800001225A7102E0194B00225A717B6803F449
:102C90008063002B08D07B6803F40063002B03D112
:102CA000124B01229A7102E0104B00229A717B684C
:102CB00003F48053002B08D07B6803F40053002BEF
:102CC00003D10A4B0122DA7103E0084B0022DA71CA
:102CD00000BF00BF1437BD465DF8047B704700BFDE
:102CE000448A02083099FE1F27CCB618F098FE1FC0
:102CF00080B485B000AF104B1B68FB6000237B6085
:102D00000023BB60FB685B68C3F31C0319460B4BD5
:102D10009B68013B1A020A4B1344994205D1FB6898
:102D20001B697B60FB685B69BB6000BF1437BD46F5
:102D30005DF8047B704700BF508A02083099FE1F7F
:102D400027CCB71880B485B000AF104B1B68FB6070
:102D500000237B600023BB60FB685B68C3F31C033C
:102D600019460B4B9B68013B1A020A4B13449942CC
:102D700005D1FB681B697B60FB685B69BB6000BFBA
:102D80001437BD465DF8047B704700BF5C8A0208BB
:102D90003099FE1F27CCEF1880B485B000AF0D4BE3
:102DA0001B68FB6000237B600023BB60FB685B68E3
:102DB00023F06043084A934205D1FB681B697B609E
:102DC000FB685B69BB6000BF1437BD465DF8047BE0
:102DD000704700BF688A020800F1FE1880B485B011
:102DE00000AF0D4B1B68FB6000237B600023BB60C2
:102DF000FB685B6823F06043084A934205D1FB6897
:102E00001B697B60FB685B69BB6000BF1437BD4614
:102E10005DF8047B704700BF748A020800E6FE1864
:102E200080B483B000AF78600B46FB70FB78012262
:102E30009A407B685A6000BF0C37BD465DF8047B42
:102E4000704780B483B000AF78600B46FB70FB78AE
:102E50004FF480329A407B685A6000BF0C37BD4601
:102E60005DF8047B704780B582B000AF78607B6806
:102E70001A687B681B7C19461046FFF7D1FF00BF1C
:102E80000837BD4680BD80B582B000AF78607B68F2
:102E90001A687B681B7C19461046FFF7D2FF00BFFB
:102EA0000837BD4680BD000080B582B000AF7860B5
:102EB0004FF47A724FF4DC71074803F061FF074862
:102EC000FFF7D1FF0648FFF7DEFF034803F039FFA5
:102ED00000BF0837BD4680BD2894FE1FA4880208A5
:102EE000F087020880B500AF0221044803F0ACFF70
:102EF0000348FFF7C8FF00BF80BD00BF2894FE1F36
:102F0000A488020880B500AF0021044803F09CFFAC
:102F10000348FFF7A8FF00BF80BD00BF2894FE1F35
:102F2000A488020880B483B000AF78600B46FB70C1
:102F3000FB7801229A407B685A6000BF0C37BD467F
:102F40005DF8047B704780B483B000AF78600B46B7
:102F5000FB70FB784FF480329A407B685A6000BF68
:102F60000C37BD465DF8047B704780B582B000AF7A
:102F700078607B681A687B681B7C19461046FFF7EF
:102F8000D1FF00BF0837BD4680BD80B582B000AF1D
:102F900078607B681A687B681B7C19461046FFF7CF
:102FA000D2FF00BF0837BD4680BD000080B582B0AB
:102FB00000AF78607B68012B18D100230D4A0121F6
:102FC000642003F00DFB03461A460B4B1A600A4BB4
:102FD0001B68184603F0A2FB0848FFF7C6FF084825
:102FE000FFF7C3FF0748FFF7C0FF00E000BF083747
:102FF000BD4680BD093002081499FE1F14870208DF
:10300000C8870208DC87020880B582B000AF78600C
:10301000394B1B68632B02DD374B00221A60364B9D
:103020001B68002B29D1354B1B68002B02D034487C
:10303000FFF79BFF314B5B68002B02D03148FFF755
:1030400094FF2E4B9B68002B02D02F48FFF78DFF7B
:103050002A4BDB68002B02D02C48FFF786FF274B5A
:103060001B69002B02D02A48FFF77FFF234B5B69C7
:10307000002B02D02748FFF778FF204B1A681E4B21
:103080001B689A4202DC1E48FFF77FFF1B4B5A6801
:10309000194B1B689A4202DC1A48FFF776FF174B60
:1030A0009A68154B1B689A4202DC1748FFF76DFFC0
:1030B000124BDA68104B1B689A4202DC1348FFF788
:1030C00064FF0E4B1A690C4B1B689A4202DC1048D5
:1030D000FFF75BFF094B5A69074B1B689A4202DCFA
:1030E0000C48FFF752FF044B1B680133024A136080
:1030F00000BF0837BD4680BD1899FE1FFC98FE1F13
:10310000B4870208A08702088C8702087887020823
:10311000648702085087020880B483B000AF7860EB
:103120000B46FB70FB7801229A407B685A6000BF17
:103130000C37BD465DF8047B704780B483B000AFA8
:1031400078600B46FB70FB784FF480329A407B68C6
:103150005A6000BF0C37BD465DF8047B704780B5F0
:1031600082B000AF78607B681A687B681B7C194668
:103170001046FFF7D1FF00BF0837BD4680BD80B5C0
:1031800082B000AF78607B681A687B681B7C194648
:103190001046FFF7D2FF00BF0837BD4680BD0000D4
:1031A00080B500AF0120FFF701FF0020FFF77CFE94
:1031B0000B48FFF7D4FF0B48FFF7E1FF0A48FFF782
:1031C000DEFF0A48FFF7DBFF0948FFF7C8FF41F2BF
:1031D00070724FF4FA61074803F0D2FD00BF80BD62
:1031E00068880208748602086086020888860208D9
:1031F000908802085094FE1F80B500AFFFF7D0FF03
:10320000FFF7D0FB00230B4A012142F2107003F0BC
:10321000E7F903461A46084B1A60074B1B68184625
:1032200003F07CFA054B1B685B42054A136000BF44
:1032300080BD00BF453202082C99FE1F3099FE1F49
:103240001494FE1F80B483B000AF786000BF0C37C9
:10325000BD465DF8047B704780B582B000AF7860F2
:103260004C227968002000F003F900BF0837BD4602
:1032700080BD80B582B000AF78604C2279680020B4
:1032800000F0C4F800F01CF9034618460837BD46A4
:1032900080BD000080B483B000AF0346FB71094BD2
:1032A00003F580539B6923F00F02FB790549134313
:1032B00001F58052936100BF0C37BD465DF8047B79
:1032C000704700BF0010005880B400AF074B03F5F3
:1032D00080539B69054A23F4004302F580529361B1
:1032E00000BFBD465DF8047B704700BF001000586A
:1032F00080B400AF074B03F580539B69054A43F444
:10330000004302F58052936100BFBD465DF8047B27
:10331000704700BF0010005880B483B000AF7860E1
:1033200039607B681B683A689A6100BF0C37BD46FC
:103330005DF8047B7047000080B584B000AF786012
:103340000023FB727B681B7883F00103DBB2002B48
:103350004CD0294B00225A60284B00225A60012091
:10336000FFF798FFFFF7C4FF02F014FA244802F0B9
:10337000FCF90023FB6005E0F86800F045F9FB6804
:103380000133FB60FB68032BF6D90020FFF782FFB7
:10339000FB7A002B25D100F08FF90346FB72FB7AF4
:1033A000002B1ED1154B5B68002B06D1134B00225E
:1033B0009A60124B134A1A6013E000F0D5F90F4BD4
:1033C0001A680E4B5B68D31AB3F5006F01D0012366
:1033D000FB720A4B1B680C4A934202D9074B094AFD
:1033E0001A60FFF771FF7B6801221A70FB7A18469A
:1033F0001037BD4680BD00BF7C99FE1F1894FE1F8C
:10340000988402080000010CFFFF010C80B586B013
:1034100000AF03463960FB801346BB80FB88134A2C
:1034200013443B61BB881A463968386904F08AFF47
:103430000346002B14BF01230023FB730023FB82F0
:103440000AE0FB8A3A681A44FB8A39690B4412780D
:103450001A70FB8A0133FB82FA8ABB889A42F0D346
:10346000FB7B18461837BD4680BD00BF8499FE1F00
:1034700080B485B000AF03463960FB801346BB8043
:10348000FB880E4A1344BB600023FB810AE0FB89E2
:10349000BA681A44FB8939680B4412781A70FB89A0
:1034A0000133FB81FA89BB889A42F0D300BF00BF89
:1034B0001437BD465DF8047B704700BF8499FE1F3A
:1034C00080B582B000AF0023FB71224B9B6803F5EF
:1034D000405304339B033B601E4B1B683A689A427F
:1034E00011D11D4B5B68002B0DD01A4B5B689B0BF9
:1034F00003F00303174A9360164B0F22DA6000F0C3
:10350000DBF80346FB71FB79002B1DD1124B5B6886
:103510000133114A536000F039F80346FB71FB791F
:10352000002B03D10B4B1B680A4A5360094B1B68E5
:1035300003F50063074A1360064B1B68074A934272
:1035400002D9044B064A1A60FB7918460837BD4673
:1035500080BD00BF1894FE1F7C99FE1FFFFF010C69
:103560000000010C80B483B000AF0023FB71064B58
:103570005B68002B01D10123FB71FB7918460C37E6
:10358000BD465DF8047B70471894FE1F80B584B07B
:1035900000AF0023FB70184B1B68FB60174BBB6030
:1035A000174800F0C9F80346144A136000237B60F3
:1035B0001AE000F089F9B968F86800F099F900F0AC
:1035C00089F902460F4B1340002B02D00323FB70F6
:1035D0000DE0BB6803F58073BB60FB6803F5807387
:1035E000FB607B6801337B607B68072BE1D9FB784C
:1035F00018461037BD4680BD1894FE1F7C99FE1FEB
:103600008099FE1F0001008080B58AB000AF78600D
:103610007B6803F5405304339B03FB61FB6903F5AF
:1036200060537B6200233B627B6ABB61BB695B6862
:103630007B617B69002B2ED01D4BDA6801217B68F2
:1036400001FA03F313431A4AD3603B6A002B03D1F8
:103650007B6A03F500633B62BB691B683B61BB6926
:103660000433184600F068F8F860FA683B699A423B
:1036700011D1104B5B687A699A420CD90D4A7B696B
:1036800053600B4A7B689360094A7B6A5360084A1F
:103690003B6A136008E07B6AA3F500637B627A6A89
:1036A000FB699A42C0D200BF00BF2837BD4680BD2B
:1036B0001894FE1F7C99FE1F80B584B000AF0023D4
:1036C000FB720023FB601B4B9B68FA689A4226D072
:1036D000184BDA68FB6822FA03F303F00103002BAE
:1036E0001DD0FB6803F5405304339B037B6000F05F
:1036F000EBF87B68184600F02FF900F0EBF8034672
:10370000202B02D00423FB720FE00A4BDA68012160
:10371000FB6801FA03F3DB431340064AD360FB68FE
:103720000133FB60FB68032BCDD9FB7A18461037B9
:10373000BD4680BD1894FE1F80B584B000AF786090
:1037400000210848FFF7E8FD07F10C0340F2FC7286
:103750007968044802F032F8FB6818461037BD4615
:1037600080BD00BF9884020880B485B000AF104BC4
:103770005B68BB600F4B7B600023FB600CE0FB6869
:103780009B00BA681A44FB689B0079680B44126876
:103790001A60FB680133FB60FB68B3F5007FEED372
:1037A00000BF00BF1437BD465DF8047B704700BF03
:1037B0001894FE1F7C99FE1F80B483B000AF054BA8
:1037C0007B607B6850221A6000BF0C37BD465DF8F5
:1037D000047B70475455000C80B485B000AF78600E
:1037E0003960084BFB60FB687A681A60064BFB6027
:1037F000FB683A681A6000BF1437BD465DF8047B69
:10380000704700BFF055000CF455000C80B485B033
:1038100000AF78600C4BFB60FB68AA221A600B4B70
:10382000FB60FB6855221A60074BFB60FB68A02217
:103830001A607B68FB60FB68AA221A6000BF14371D
:10384000BD465DF8047B70475455000CA8AA000CD7
:1038500080B485B000AF7860114BFB60FB68AA2292
:103860001A60104BFB60FB6855221A600C4BFB6022
:10387000FB6880221A600A4BFB60FB68AA221A6070
:10388000084BFB60FB6855221A607B68FB60FB6895
:1038900030221A6000BF1437BD465DF8047B7047C4
:1038A0005455000CA8AA000C80B483B000AF054B9F
:1038B0007B607B68F5221A6000BF0C37BD465DF85F
:1038C000047B70475455000C80B500AFFFF7ECFF48
:1038D00000BF80BD80B400AF044B03F580531B696B
:1038E0001846BD465DF8047B704700BF00100058C5
:1038F00080B584B000AF78603960FFF7D5FFFFF77F
:103900005BFF0023FB6010E0FB689B003A681344F8
:103910001868FB6801339B003A6813441B6819461A
:10392000FFF75AFFFB680233FB60FB683F2BEBD9C4
:103930007868FFF76BFF00BF064B03F580531B69E8
:1039400003F00103002BF7D100BF00BF1037BD46C5
:1039500080BD00BF0010005880B582B000AF786015
:10396000FFF7A2FF7868FFF773FF00BF064B03F570
:1039700080531B6903F00103002BF7D100BF00BF88
:103980000837BD4680BD00BF0010005880B485B028
:1039900000AFF8600B467A60FB72FB7A9B08DBB2E3
:1039A0001A46FB68043253F82220FB7A03F0030323
:1039B000DB00F82101FA03F3DB43F97A8908C9B285
:1039C000084602EA0301FB68021D43F82210FB6867
:1039D0005A6FFB7A5B00032101FA03F3DB431A40C1
:1039E000FB685A67FB683A4A934203D0FB68394A3E
:1039F00093420AD1FB681A6EFB7A012101FA03F3A4
:103A0000DB431A40FB681A6641E07B681B785BB2B7
:103A1000002B3CDA7B685A68FB7A9A40FB685A6054
:103A2000FB7ADB08DBB21A46FB68103253F822201F
:103A3000FB7A03F007039B00072101FA03F3DB4342
:103A4000F97AC908C9B2084602EA0301FB6800F125
:103A5000100243F82210FB7ADB08DBB21A46FB683F
:103A6000103253F822207B681B7A1946FB7A03F048
:103A700007039B0001FA03F3F97AC908C9B20846A3
:103A800042EA0301FB6800F1100243F82210FB7ABE
:103A90009B08DBB21A46FB68043253F822207B688D
:103AA0001B781946FB7A03F00303DB0001FA03F3EA
:103AB000F97A8908C9B2084642EA0301FB68021D87
:103AC00043F8221000BF1437BD465DF8047B7047F1
:103AD000008E0248008F024880B400AF034B1B6881
:103AE0001846BD465DF8047B704700BFC0FF032049
:103AF00080B584B000AF7860FCF7E2FD0C4B1B682A
:103B00000C4AA2FB03239A0C7B6802FB03F37B6045
:103B10000023FB6003E000BFFB680133FB60FA6831
:103B20007B689A42F7D300BF00BF1037BD4680BD07
:103B3000C0FF032083DE1B4380B400AF034B5B68F0
:103B40001846BD465DF8047B704700BF74400050C6
:103B500080B483B000AF7860044A7B68D36000BF54
:103B60000C37BD465DF8047B704700BF74400050C1
:103B700080B483B000AF0346FB80044AFB88136126
:103B800000BF0C37BD465DF8047B70470040005015
:103B900090B585B002AF7860002000F097F800F093
:103BA0006DFA7B68DB79002B0AD000F0A5FA00BF24
:103BB00000F090FA034683F00103DBB2002BF7D14B
:103BC0007B681B7A184600F033FA7B681B7C18462A
:103BD00000F0FAF87B685B7C184600F021F97B68FE
:103BE0009B7C184600F006F97B68DB7C184600F0E9
:103BF0002DF97B689B79002B0AD000F0B7FA00BF43
:103C000000F0DCFA034683F00103DBB2002BF7D1AE
:103C10007B68DB78002B09D17B689B7983F00103FB
:103C2000DBB2002B14D000F0EFFA11E000F0DAFA6A
:103C30007B6898887B68D9787B685B781A467B6854
:103C40001B781C467B689B780093234600F0EEFAB5
:103C50007B68DB68B3F5803F03D14FF4803000F020
:103C600035F8FCF72DFD00BF0C37BD4690BD0000B8
:103C700080B485B000AF78607B681B0FFB607B6809
:103C800023F07043BB60FA6813465B0013449B004B
:103C90001A46054B1344BA681A6000BF1437BD4674
:103CA0005DF8047B704700BF1444005080B500AF3E
:103CB000FFF712FF0246044B5B6903F0010322FA8F
:103CC00003F3184680BD00BF0046005080B483B0A7
:103CD00000AF7860064BDB6823F4803204497B68D0
:103CE0001343CB6000BF0C37BD465DF8047B7047C3
:103CF0000046005080B483B000AF7860064B9B69EB
:103D000023F4803204497B6813438B6100BF0C3776
:103D1000BD465DF8047B70470046005080B483B018
:103D200000AF7860064B5B6A23F4403204497B683D
:103D300013434B6200BF0C37BD465DF8047B7047F0
:103D40000046005080B483B000AF0346FB80FB8880
:103D5000002B08D10B4BDB680A4A23F4807323F055
:103D60000103D36007E0074BDB68064A43F4807326
:103D700043F00103D36000BF0C37BD465DF8047B00
:103D8000704700BF1047005080B483B000AF0346B7
:103D9000FB7100BF0A4BD3F8C43003F00803002BBB
:103DA000F8D1084BDB6823F04002FB790549134347
:103DB000CB6000BF0C37BD465DF8047B704700BF89
:103DC000004000500043005080B483B000AF7860E2
:103DD000074BDB6823F0FF027B68013B0449134378
:103DE000CB6000BF0C37BD465DF8047B704700BF59
:103DF0000046005080B483B000AF7860074B1B6A68
:103E000023F001027B68013B044913430B6200BFAE
:103E10000C37BD465DF8047B704700BF004600507C
:103E200080B483B000AF7860074B1B6923F00102B8
:103E30007B68013B044913430B6100BF0C37BD464F
:103E40005DF8047B704700BF0046005080B483B02B
:103E500000AF7860074B5B6923F001027B68013B90
:103E6000044913434B6100BF0C37BD465DF8047B2A
:103E7000704700BF0046005080B483B000AF786048
:103E8000074B9B6923F007027B68013B04491343FE
:103E90008B6100BF0C37BD465DF8047B704700BFE7
:103EA0000046005080B483B000AF7860074BDB69F8
:103EB00023F03F027B68013B04491343CB6100BF01
:103EC0000C37BD465DF8047B704700BF00460050CC
:103ED00080B483B000AF7860074B5B6A23F0FF02C9
:103EE0007B68013B044913434B6200BF0C37BD465E
:103EF0005DF8047B704700BF0046005080B483B07B
:103F000000AF0346FB71044AFB79536000BF0C37D6
:103F1000BD465DF8047B70470046005080B485B014
:103F200000AF78607B681B0FFB607B6823F07043F9
:103F3000BB60FA6813465B0013449B001A46054BAE
:103F40001344BA681A6000BF1437BD465DF8047B9D
:103F5000704700BF4846005080B400AF064B5B6915
:103F6000054A23F4803323F00203536100BFBD46AA
:103F70005DF8047B704700BF1047005080B483B0E9
:103F800000AF78603960284B5B69274A43F0010332
:103F9000536100BF244B1B6903F00103002BF9D0D0
:103FA000214B5B69204A43F0100353613B68013B9E
:103FB0001A027B68013B1B061B4913434B611A4BDA
:103FC0005B69194A43F040035361174B5B69164A1A
:103FD00023F010035361144B5B69134A43F48023AD
:103FE000536100BF104B1B6903F00403002BF9D091
:103FF0000D4B5B690C4A23F00103536100BF0A4B70
:104000001B6903F00103002BF9D1074B5B69064ADA
:1040100023F040035361054B0822DA6000BF0C37E0
:10402000BD465DF8047B704710470050604100506A
:1040300080B582B000AF0346FB710F4B5B680E4A40
:1040400043F480135360FB79012B0ED10A4B5B685C
:10405000094A23F4801353606420FFF749FD064B9F
:104060005B68054A43F4002353606420FFF740FD7A
:1040700000BF0837BD4680BD1047005080B400AF78
:10408000124B1B6803F00103002B09D10F4B0122D7
:104090005A6000BF0D4B1B6803F00103002BF9D0E1
:1040A0000B4B1B6803F40073002B0AD0084B4FF432
:1040B00000729A6000BF064B1B6803F40073002B6C
:1040C000F9D100BFBD465DF8047B70470042005047
:1040D0000044005080B400AF064B1B6803F0080397
:1040E000002B0CBF01230023DBB21846BD465DF850
:1040F000047B70470043005080B500AF4FF40000D0
:10410000FFF726FD184BDB69174A23F03003D36114
:1041100000BFFFF711FD034603F40003002BF8D0A6
:104120004FF40030FFF714FD0F4B08225A6000BF18
:10413000FFF702FD034603F40033002BF8D04FF4E1
:104140000020FFF705FD084BDB68074A43F0080332
:10415000D36000BFFFF7F0FC034603F40023002BFD
:10416000F8D000BF00BF80BD0043005098B500AF3D
:104170000F4B5B680E4A23F4803353600D4B5B6832
:1041800023F4702424F0300403F088F803460A4A2C
:10419000A2FB03231B0D013B1B04064A2343536070
:1041A000034B5B68024A23F40033536000BF98BDA1
:1041B00010470050004700506BCA5F6B80B400AFDF
:1041C000074B1B6803F46073B3F5607F0CBF0123DA
:1041D0000023DBB21846BD465DF8047B704700BF84
:1041E0001047005080B400AF064B5B68054A23F4CB
:1041F000803323F00203536000BFBD465DF8047BAB
:10420000704700BF1047005080B400AF064B5B689A
:10421000054A43F4803343F00203536000BFBD46B8
:104220005DF8047B704700BF1047005080B586B032
:1042300000AFBA607B600346FB810B467B73FB8952
:104240001846FFF77FFD7B7B012B40F08B80FB89BD
:10425000002B09D103F022F80346544AA2FB0323A2
:104260009B0C9B057B6102E04FF0C0637B617B6927
:104270007A6803FB02F2BB68B2FBF3F37B617B69F4
:104280004B4AA2FB03231B099B0D3B61494B5B6817
:10429000484A43F00103536000BF464B1B6803F0DC
:1042A0000103002BF9D0434B5B68424A43F01003F3
:1042B0005360404B9A68404B13407A68013A1202AF
:1042C0001A433B69013B1B041A43BB68013B1B06B5
:1042D000384913438B60374B5B68364A43F04003E1
:1042E0005360344B5B68334A23F010035360314B07
:1042F0005B68304A43F48023536000BF2D4B1B683A
:1043000003F00403002BF9D02A4B5B68294A23F001
:104310000103536000BF274B1B6803F00103002B10
:10432000F9D17B69254AA2FB03235B099B0D3B6105
:104330003A6A3B699A4202D2386900F045F87B69D3
:104340005B081F4AA2FB03235B099B0D3B613A6A92
:104350003B699A4202D2386900F036F8386A00F0B8
:1043600033F81CE0134B9B6823F07F023B6A013B50
:10437000104913438B6000BF0E4B1B6803F0100302
:10438000002BF9D00B4B5B680A4A43F001035360E2
:1043900000BF084B1B6803F00103002BF9D0094B49
:1043A0000522DA6000BF1837BD4680BD83DE1B439F
:1043B000ABAAAAAA10470050FF8080F0898888889D
:1043C000B7600BB66041005080B582B000AF786036
:1043D0000B4B9B6823F4FE027B68013B1B040849DE
:1043E00013438B6000BF064B1B6803F02003002BB8
:1043F000F9D03220FFF77CFB00BF0837BD4680BDF7
:104400001047005080B483B000AF78607B68D3F869
:10441000C43103F44073002B0CBF01230023DBB233
:1044200018460C37BD465DF8047B704780B483B0F6
:1044300000AF7860084611461A460346FB700B46EB
:10444000BB7013467B70FA78BB781B0403F47F03C0
:104450001A437B781B061A437B68C3F8C42100BF4C
:104460000C37BD465DF8047B704780B483B000AF65
:1044700078607B681B6843F040027B681A6000BF6D
:104480000C37BD465DF8047B704780B483B000AF45
:1044900078607B681B6823F040027B681A6000BF6D
:1044A0000C37BD465DF8047B704780B483B000AF25
:1044B000786039603A687B68934238BF1346184683
:1044C0000C37BD465DF8047B704780B483B000AF05
:1044D000786039603A687B68934228BF1346184673
:1044E0000C37BD465DF8047B7047000080B588B08E
:1044F00000AF786039603B681B683A685268B3FB6C
:10450000F2F101FB02F29B1A002B40F09180002394
:10451000FB610023BB613B681A683B685B68B2FBC8
:10452000F3F3BB6019237B6100233B610023FB6035
:104530004AE0BB687A69B3FBF2F2796901FB02F2E7
:104540009B1A002B3DD10023BB61BA687B69B2FB8B
:10455000F3F3FB61FB69002B33D0FB69B3F5007FFC
:104560002FD8FB693F2B0AD9FB6903F00703002B07
:1045700003D07B69013B7B6126E00123BB617B6942
:10458000013B3A68128902FB03F32C4AA2FB032386
:104590005B0B3B617A693B69D31A013BFB603B696A
:1045A000022B0ED93B690F2B0BD8FB68012B08D9C6
:1045B000FB68062B05D83B685B891A46FB6893426B
:1045C00006D27B69013B7B617B69072BB1D800E098
:1045D00000BF7B69072B2BD97868FFF746FFFB6884
:1045E000013B1B0303F4E0423B685B89013B9B01F9
:1045F000DBB21A433B69013B1B0203F4706342EADE
:104600000301BA6913465B001344FA6922FA03F303
:10461000013B03F03F0341EA0302BB69DB039BB2AA
:104620001A437B681A617868FFF72FFF002300E0C8
:10463000012318462037BD4680BD00BF5917B7D1AA
:1046400080B582B000AF78600B46FB701346BB703C
:1046500000BF7868FFF7D6FE034683F00103DBB2A4
:10466000002BF6D1FB780133DBB2BA7802217868EF
:10467000FFF7DCFE00BF0837BD4680BD80B582B0C5
:1046800000AF78600B48FFF749FC0A48FFF7F0FAE3
:104690007B681B6823F001027B681A6000BF7B689F
:1046A0001B6803F00203002BF9D100BF00BF0837DD
:1046B000BD4680BD1000001080B483B000AF7860AC
:1046C0000B46FB707B68D3F8C83123F00F02FB78F0
:1046D0001A437B68C3F8C82100BF0C37BD465DF89C
:1046E000047B704780B483B000AF78607B68D3F8F8
:1046F000C831DBB203F00F03DBB218460C37BD46FE
:104700005DF8047B704780B584B000AF786000230B
:10471000FB607868FFF7E6FF0346012B02D0022B0F
:1047200004D007E0FFF7C2FAF86003E002F0B6FD3C
:10473000F86000BFFB6818461037BD4680BD80B5E5
:1047400088B000AFF8600B467A60FB72F868FFF73C
:1047500095FFFB7A1946F868FFF7AEFFF868FFF798
:10476000D2FFF861FA697B68B2FBF3F3C3F58063AB
:1047700019460020FFF799FE034640F2FF31184624
:10478000FFF7A3FEB861BB69C3F58063FA69B2FBAA
:10479000F3F37B61FB68DB6823F4434323F0FF03FF
:1047A000FA68D360FB68DA68BB69134343F480425C
:1047B000FB68DA607B6918462037BD4680BD000083
:1047C00080B586B000AF78607B681B6803F1384322
:1047D000A3F5A8335B097B617B695B095A037B699D
:1047E0001B0203F4F85313433B617B681B689A6810
:1047F0007B681B6822F47F429A607B681B6899681B
:104800007B681B683A690A439A607B68DB7903F02E
:104810002003DBB2002B06D07B68DB7903F020039A
:10482000DBB2002B60D07B681B7E002B03D07B6843
:104830001B7E012B58D17B681B682022DA617B68C4
:10484000DB7903F02003DBB2002B28D17B685B68A7
:10485000FB60FB6803F06043FB607B685B68C3F34D
:104860001C039B041A46FB681343FB607B681B68B0
:10487000FA689A617B689B68FB60FB6803F06043A1
:10488000FB607B689B68C3F31C039B041A46FB68B0
:104890001343FB607B681B68FA68DA6009E07B6899
:1048A0001B687A6852689A617B681B687A689268AC
:1048B000DA607B681B7E012B0CD1786800F01CF855
:1048C0007B681B684FF00062DA617B681B68084AEE
:1048D000DA6109E07B681B684FF40062DA617B688B
:1048E0001B68044ADA61FFE700BF1837BD4680BD88
:1048F000C00020064006A00080B485B000AF7860FC
:104900000323FB737B681B7E012B22D17B681B6812
:104910002022DA617B681B681B6823F070617B686A
:104920001B7B1B0603F070627B681B680A431A60DE
:104930007B681B687A6812691A617B681B687A68F1
:1049400052695A617B681B68064ADA610023FB736F
:1049500001E00323FB73FB7B18461437BD465DF86B
:10496000047B70474000280080B487B000AF7860B7
:104970000123FB750023BB7500237B757B681B68D7
:10498000DB69DB0A03F001033B617B681B68DB69C1
:104990009B0803F00103FB603B69002B02D003235B
:1049A000FB75A3E0FB68012B02D10223FB759DE0A0
:1049B0007B681B680822DA617B681B689B6903F0CF
:1049C0000053002B3DD17A68D3796FF34513D3712F
:1049D0007B681B689B699B0C23F06043C3F30A014F
:1049E0007A68536861F31C0353607B681B68DB685B
:1049F0005B0F03F00103D9B27A68D37A61F34513F0
:104A0000D3727B68DB7A03F02003DBB2002B0DD07E
:104A10007B681B68DB689B0C23F06043C3F30A01CF
:104A20007A68936861F31C0393602FE07B681B68CE
:104A3000DB6823F060417A68936861F31C0393603C
:104A400024E07A68D37943F02003D3717B681B6834
:104A50009B6923F060417A68536861F31C035360DB
:104A60007B681B68DB6823F060417A68936861F3B8
:104A70001C0393607B681B68DB685B0F03F001031A
:104A8000D9B27A68D37A61F34513D3727B681B6815
:104A90001B681B0EDBB203F00F03DAB27B681A73DC
:104AA0007B681B681A697B681A617B681B685A6996
:104AB0007B685A617B681B68DB699B08DBB203F08B
:104AC0000103BB757B681B68DB69DB08DBB203F0A5
:104AD00001037B75BB7D002B03D07B7D002B7FF416
:104AE00067AF7B6800221A760023FB75FB7D1846B2
:104AF0001C37BD465DF8047B704780B483B000AFBF
:104B0000786039603B68B3F5800F06D07B681A681F
:104B10003B681A437B681A6005E07B689A693B68CA
:104B20001A437B689A6100BF0C37BD465DF8047B71
:104B3000704780B483B000AF78607B684FF48072B8
:104B4000DA6000BF0C37BD465DF8047B704700009B
:104B500080B582B000AF78607B68114A934203D180
:104B60000420FFF785F816E07B680E4A934203D1D4
:104B70000820FFF77DF80EE07B680B4A934203D1D3
:104B80001020FFF775F806E07B68084A934202D1CF
:104B90000748FFF76DF800BF0837BD4680BD00BF6E
:104BA00000C00040000001400040014000400048BB
:104BB0000100001080B582B000AF78607B68114AB8
:104BC000934203D10420FFF7A9F916E07B680E4A4F
:104BD000934203D10820FFF7A1F90EE07B680B4A4E
:104BE000934203D11020FFF799F906E07B68084A49
:104BF000934202D10748FFF791F900BF0837BD463D
:104C000080BD00BF00C000400000014000400140E6
:104C1000004000480100001080B582B000AF78600D
:104C20001020FFF76BF97868FFF7C4FF7868FFF78B
:104C30008FFF00BF0837BD4680BD80B584B000AF90
:104C400078600B46FB707868FFF7E6FF7868FFF73F
:104C500070FF7B681B68FB60FB6823F44043FB60CC
:104C6000FB789B03FA681343FB607B68FA681A6061
:104C700000BF1037BD4680BD80B485B000AF7860FE
:104C800039607B681B68FB603B681B0CDB43FA6880
:104C90001340FB603B689BB2FA681343FB607B6880
:104CA000FA681A6000BF1437BD465DF8047B704790
:104CB00080B483B000AF786039603B681A687B6865
:104CC0005A613B685B79C3F34013DBB21A057B681A
:104CD0005A603B681B79C3F30303DBB21A467B6857
:104CE0005A623B685B79C3F30303DBB21A467B6805
:104CF0001A623B685B79C3F30013DBB21A467B6828
:104D00009A613B681B79C3F30313DBB21A467B68D5
:104D1000DA6200BF0C37BD465DF8047B704780B493
:104D200083B000AF786039603B681A687B685A616D
:104D30003B685B79C3F30003DBB21A057B685A60FA
:104D40003B681B79C3F30303DBB21A467B685A62E4
:104D50003B681B79C3F30313DBB21A467B68DA6244
:104D600000BF0C37BD465DF8047B704780B485B04A
:104D700000AF78600B46FB701346BB707B685B68C6
:104D8000BB60BB6823F00303BB60FB78BA681343C6
:104D9000BB607B68BA685A607B685B69FB60BB7804
:104DA000012B04D1FB6843F48063FB6003E0FB68E4
:104DB00023F48063FB607B68FA685A6100BF143794
:104DC000BD465DF8047B704780B485B000AF786065
:104DD0000B46FB701346BB707B685B68FB60FB682F
:104DE00023F00C03FB60FB789B00FA681343FB6025
:104DF0007B68FA685A607B685B69BB60BB6823F4B8
:104E00004073BB60BB781B02BA681343BB607B680E
:104E1000BA685A6100BF1437BD465DF8047B70471D
:104E200080B485B000AF78600B46FB707B685B6830
:104E3000FB60FB6823F44053FB60FB781B03FA68BC
:104E40001343FB607B68FA685A6000BF1437BD46A5
:104E50005DF8047B704780B485B000AF7860084689
:104E600011461A460346FB700B46BB7013467B7017
:104E70007B685B69FB607B685B68BB60BB6823F435
:104E80004023BB60FB789B04BA681343BB607B681C
:104E9000BA685A60BB78012B04D1FB6843F0807379
:104EA000FB6003E0FB6823F08073FB607B78002BE2
:104EB00004D0FB6843F40003FB6003E0FB6823F4C9
:104EC0000003FB607B68FA685A6100BF1437BD4677
:104ED0005DF8047B704780B485B000AF78600B4606
:104EE000FB707B685B68FB60FB6823F44043FB60FE
:104EF000FB789B03FA681343FB607B68FA685A608F
:104F000000BF1437BD465DF8047B704780B485B0A0
:104F100000AF78600B46FB707B685B68FB60FB68EA
:104F200023F44073FB60FB781B02FA681343FB60B9
:104F30007B68FA685A6000BF1437BD465DF8047B91
:104F4000704780B485B000AF78600B46FB707B681B
:104F50005B68FB60FB6823F0C003FB60FB789B0190
:104F6000FA681343FB607B68FA685A6000BF143725
:104F7000BD465DF8047B704780B485B000AF7860B3
:104F80000B46FB707B685B68FB60FB6823F4406347
:104F9000FB60FB789B02FA681343FB607B68FA684E
:104FA0005A6000BF1437BD465DF8047B704780B47B
:104FB00085B000AF78607B685B68FB60FB6823F4BA
:104FC0008033FB60FB6843F48033FB607B68FA68E6
:104FD0005A6000BF1437BD465DF8047B704780B44B
:104FE00085B000AF78600B46FB701346BB707B68E2
:104FF0005B68BB60BB6823F40033BB60BB6843F4F1
:105000000033BB607B68BA685A607B685B69FB6091
:10501000BB78002B04D0FB6843F40013FB6003E073
:10502000FB6823F40013FB60FB78012B04D1FB68C1
:1050300043F48003FB6003E0FB6823F48003FB6020
:105040007B68FA685A6100BF1437BD465DF8047B7F
:10505000704780B487B000AFF860B9607A60FB68D1
:105060001B687B617B6923F440237B61BB685B78B1
:105070009B047A6913437B617B6923F440137B6152
:105080007B685B781B057A6913437B617B6923F43A
:1050900000037B61BB689B78DB057A6913437B6106
:1050A0007B6923F080737B617B689B781B067A6940
:1050B00013437B617B6923F0C0537B61BB68DB7862
:1050C000DB067A6913437B617B6923F0C0437B6114
:1050D0007B68DB785B077A6913437B617B6923F02C
:1050E000F0037B61BB681B781B017A6913437B610A
:1050F0007B6923F470637B617B681B781B027A6990
:1051000013437B61FB687A691A6000BF1C37BD4698
:105110005DF8047B704780B489B000AFF8600B463F
:105120007A60FB72FB7A013BFB77FB681B68BB6113
:10513000FB7F5B00DBB21033FB75FB7D032202FAC1
:1051400003F3DB43BA691340BB617B685B781A46A3
:10515000FB7D02FA03F3BA691343BB61FB7F16338D
:10516000FB75FB7D012202FA03F3DB43BA691340AE
:10517000BB617B689B781A46FB7D02FA03F3BA6930
:105180001343BB61FB7F5B00DBB21933FB75FB7D17
:10519000032202FA03F3DB43BA691340BB617B6865
:1051A000DB781A46FB7D02FA03F3BA691343BB614D
:1051B000FB7F9B00FB75FB7D0F2202FA03F3DB43B1
:1051C000BA691340BB617B681B781A46FB7D02FA03
:1051D00003F3BA691343BB61FB68BA691A6000BF85
:1051E0002437BD465DF8047B704780B483B000AFC0
:1051F00078600B46FB70FB787A681C339B00134485
:105200005B6818460C37BD465DF8047B704780B478
:1052100085B000AF78600B46FB707B689B6AFB60D3
:10522000FB6823F47063FB60FB781B02FA6813438E
:10523000FB607B68FA689A62FA787B685A6200BF02
:105240001437BD465DF8047B7047000080B487B01A
:1052500000AF78600B46FB701346BB70FB780B2BDE
:1052600036D801A252F823F0995202089952020846
:10527000A3520208A3520208D1520208D1520208D6
:10528000D1520208D1520208AD520208B9520208A6
:10529000C5520208C552020803233B6100237B610B
:1052A0001BE00C233B6102237B6116E04FF440734B
:1052B0003B6108237B6110E04FF440633B610A23AC
:1052C0007B610AE04FF440533B610C237B6104E0B7
:1052D00000233B6100237B6100BF3B69002B13D09F
:1052E0007B68D3F8A830FB603B69DB43FA68134066
:1052F000FB60BA787B6902FA03F3FA681343FB6038
:105300007B68FA68C3F8A82000BF1C37BD465DF86B
:10531000047B704780B483B000AF78607B684FF443
:105320008072DA6000BF0C37BD465DF8047B7047C1
:1053300080B483B000AF78607B6801221A6100BF3F
:105340000C37BD465DF8047B7047000080B582B025
:1053500000AF78607B68094A934203D18020FEF752
:1053600087FC07E07B68064A934203D14FF48070C4
:10537000FEF77EFC00BF0837BD4680BD000002403E
:105380000040024080B582B000AF78607B68094A77
:10539000934203D18020FEF7C1FD07E07B68064AF7
:1053A000934203D14FF48070FEF7B8FD00BF083779
:1053B000BD4680BD000002400040024080B582B082
:1053C00000AF78601020FEF799FD7868FFF7DAFFEC
:1053D0007868FFF7BBFF00BF0837BD4680BD80B5CA
:1053E00084B000AF78600B46FB707868FFF7E6FF8B
:1053F0007868FFF78FFF7B681B68FB60FB6823F40E
:105400004043FB60FB789B03FA681343FB607B68B7
:10541000FA681A6000BF1037BD4680BD80B582B003
:1054200000AF786039607868FFF782FF3B681A68E0
:105430007B685A613B685B7BC3F30013DBB21A05E0
:105440007B685A603B681B7BC3F30303DBB21A46DD
:105450007B685A623B681B7BC3F30313DBB21A46BB
:105460007B68DA623B685B7BC3F30303DBB21A46FB
:105470007B681A623B685A687B689A613B689B68E4
:1054800083F014027B689A6400BF0837BD4680BD74
:1054900080B485B000AF78600B46FB701346BB70DC
:1054A0007B685B68BB60BB6823F00303BB60FB7871
:1054B000BA681343BB607B68BA685A607B685B69F3
:1054C000FB60BB78012B04D1FB6843F48063FB6075
:1054D00003E0FB6823F48063FB607B68FA685A6131
:1054E00000BF1437BD465DF8047B704780B485B0BB
:1054F00000AF78600B46FB701346BB707B685B683F
:10550000FB60FB6823F00C03FB60FB789B00FA68F0
:105510001343FB607B68FA685A607B685B69BB6019
:10552000BB6823F44073BB60BB781B02BA681343AB
:10553000BB607B68BA685A6100BF1437BD465DF82E
:10554000047B704780B489B000AFF8600B467A6086
:10555000FB72FB7A013BFB77FB681B68BB61FB7F3F
:105560005B00DBB21033FB75FB7D032202FA03F311
:10557000DB43BA691340BB617B685B781A46FB7DED
:1055800002FA03F3BA691343BB61FB7F1633FB7561
:10559000FB7D012202FA03F3DB43BA691340BB61CE
:1055A0007B689B781A46FB7D02FA03F3BA691343C2
:1055B000BB61FB7F5B00DBB21933FB75FB7D032214
:1055C00002FA03F3DB43BA691340BB617B68DB7803
:1055D0001A46FB7D02FA03F3BA691343BB61FB7FF2
:1055E0009B00FB75FB7D0F2202FA03F3DB43BA69D4
:1055F0001340BB617B681B781A46FB7D02FA03F3FC
:10560000BA691343BB61FB68BA691A6000BF2437EB
:10561000BD465DF8047B704780B483B000AF78600E
:105620000B467B807A887B685A6300BF0C37BD4687
:105630005DF8047B704780B483B000AF78600B46A0
:10564000FB7013463B80FB78002B03D13A887B68C4
:10565000DA6302E03A887B685A6400BF0C37BD46C3
:105660005DF8047B7047000080B487B000AF7860BD
:105670000B46FB701346BB70FB780B2B3BD801A28B
:1056800052F823F0B5560208B5560208BF56020874
:10569000BF560208C9560208C9560208F756020842
:1056A000F7560208D3560208DF560208EB560208E6
:1056B000EB56020803237B6100233B6120E00C23AF
:1056C0007B6102233B611BE030237B6104233B6150
:1056D00016E04FF440737B6108233B6110E04FF408
:1056E00040637B610A233B610AE04FF440537B61D6
:1056F0000C233B6104E000237B6100233B6100BF7E
:105700007B69002B13D07B68D3F8A830FB607B69E2
:10571000DB43FA681340FB60BA783B6902FA03F393
:10572000FA681343FB607B68FA68C3F8A82000BFDF
:105730001C37BD465DF8047B704700BF80B483B062
:1057400000AF786039603B685A687B681A653B68CF
:105750009A687B685A653B681A687B68DA6400BFA0
:105760000C37BD465DF8047B704780B483B000AF52
:1057700078607B681B687A6852689A607B681B68EF
:105780007A6892689A61002318460C37BD465DF826
:10579000047B704780B500AF0648FEF7BFFB0548A5
:1057A000FEF766FA044B1B68034A23F001031360FB
:1057B00000BF80BD400000200000025080B487B0D0
:1057C00000AFF860B9607A603B600023FB757B68CE
:1057D000002B04D07B6803F00303002B0DD00223C1
:1057E000FB7512E0FB681B68BA6812681A60BB6838
:1057F0000433BB607B68043B7B607B68002BF1D18A
:10580000FB681B689A693B681A60FB7D18461C3769
:10581000BD465DF8047B704780B483B000AF78600C
:105820000B46FB701346BB707B685A6FFB785B00BE
:10583000032101FA03F3DB431A407B685A677B6854
:105840005A6FB978FB785B0001FA03F31A437B685F
:105850005A6700BF0C37BD465DF8047B704780B4C3
:1058600083B000AF78607B680322DA6000BF0C373A
:10587000BD465DF8047B704780B582B000AF7860AC
:105880001020FEF73BFB7B680D4A934208D14FF492
:105890000070FEF743FB4FF40070FEF7E9F90BE0F0
:1058A0007B68084A934207D14FF48060FEF736FBCD
:1058B0004FF48060FEF7DCF900BF0837BD4680BDBD
:1058C0000080024000C0024080B582B000AF786026
:1058D00039607868FFF7D0FF7868FFF7C0FF3B6852
:1058E0001A687B681A6000BF0837BD4680BD80B467
:1058F00085B000AF786039607B681B68DBB203F06D
:105900000303002B09D17B681A683B681B681A43A4
:105910007B681A600023FB7301E00123FB73FB7BB0
:1059200018461437BD465DF8047B704780B485B0D7
:1059300000AF786039607B681B68DBB203F003035B
:10594000012B09D07B681A683B681B681A437B6887
:105950001A600023FB7301E00123FB73FB7B1846F5
:105960001437BD465DF8047B704780B485B000AF46
:1059700078600B46FB701346BB707B685B6FFB6007
:10598000FB781033012202FA03F3DB43FA68134079
:10599000FB60BA78FB78103302FA03F3FA6813431A
:1059A000FB607B68FA685A6700BF1437BD465DF834
:1059B000047B704780B485B000AF786039603B7875
:1059C000C3F30203DBB21A467B88C3F309039BB21D
:1059D0001B041343FB607B68FA68C3F8F021FB7873
:1059E000C3F30013DBB21A07FB78C3F38103DBB206
:1059F0009B061A43FB78C3F34013DBB25B071343E8
:105A0000FB60FB78C3F38013DBB29B07FA68134398
:105A1000FB607B68D3F8F021FB68134343F000423E
:105A20007B68C3F8F02100BF1437BD465DF8047BE6
:105A3000704780B483B000AF78607B68D3F884305F
:105A400043F080627B68C3F8842000BF0C37BD46FA
:105A50005DF8047B704780B483B000AF78607B68EA
:105A6000D3F8843023F080627B68C3F8842000BFC1
:105A70000C37BD465DF8047B704780B483B000AF3F
:105A800078607B68D3F8843043F080727B68C3F819
:105A9000842000BF0C37BD465DF8047B704780B49E
:105AA00083B000AF78607B68D3F8843023F08072D5
:105AB0007B68C3F8842000BF0C37BD465DF8047BCB
:105AC000704780B500AF0120FEF728FA0120FEF7ED
:105AD000CFF800BF80BD80B582B000AF786039607C
